:020000040800F2
:10000000600A0020D5000008AD3E0008A13E0008AF
:1000100000000000000000000000000000000000E0
:10002000000000000000000000000000FD3F00088C
:100030000000000000000000993F00080140000897
:10004000E7000008E7000008E7000008E7000008F4
:10005000E7000008E7000008E7000008E7000008E4
:10006000E7000008E7000008E7000008E7000008D4
:10007000E7000008E7000008E700000899400008D2
:10008000E7000008E7000008E7000008E7000008B4
:10009000E7000008E7000008E7000008E7000008A4
:1000A000E7000008E7000008E7000008E700000894
:1000B000E7000008E700000861060008E700000804
:1000C0000348854600F03EF800480047E542000836
:1000D000600A00200448804704480047FEE7FEE726
:1000E000FEE7FEE7FEE7FEE721400008C10000084A
:1000F00030B50B46014600202022012409E00D46C0
:10010000D5409D4205D31D469540491B2546954047
:1001100040191546521E002DF1DC30BD70B500248B
:100120002546002801DA01244042002901DA012590
:100130004942FFF7DDFFAC4200D04042002C00D026
:10014000494270BD064C0125064E05E0E36807CC28
:100150002B430C3C98471034B442F7D3FFF7B4FF5D
:10016000504E0008704E000870B58C180578401C81
:100170006B075B0F01D10378401C2A1106D102786E
:10018000401C03E006780E70401C491C5B1EF9D130
:100190002B0705D40023521E0DD40B70491CFAE71F
:1001A0000378401CCB1A921C03E01D780D70491C8B
:1001B0005B1C521EF9D5A142D8D3002070BD10B5EA
:1001C00004460121480603F009FF002101204006F2
:1001D00003F004FF10BD000010B50021837A012256
:1001E0009A401146394A126801231A43374B1A6064
:1001F0001A46D2698A43DA61027B002A1AD11A466A
:10020000D2688A43DA60C288120443881A43304BAA
:100210000924A4011B19847AE4001A51828812046B
:1002200003881A432A4B0924A4011B19847AE40089
:100230001B195A60027B012A1BD1244AD2680A4347
:10024000224BDA600288120443881A43204B0924A7
:10025000A4011B19847AE4001A5182881204C3880D
:100260001A431B4B0924A4011B19847AE4001B19AF
:100270005A60C27A002A05D1144A52688A43134B45
:100280005A6004E0114A52680A43104B5A600289CE
:10029000002A04D10D4A52698A430C4B5A610289E3
:1002A000012A04D1094A52690A43084B5A61427B28
:1002B000012A04D1054AD2690A43044BDA61034A90
:1002C000126852085200014B1A6010BD00660040CF
:1002D00000640040002A03D043690B43436102E0FD
:1002E00043698B434361704730B5024600200023C9
:1002F00014680225AC431460146801252C43146073
:1003000000E05B1C5468E407E40F002C02D13C4C75
:10031000A342F6D15468E407E40F002C01D1002079
:100320006DE08C79012C04D1146880252C43146075
:1003300003E014688025AC431460CC79012C04D10F
:10034000146840252C43146003E014684025AC4336
:1003500014600C7A012C04D1146820252C431460FD
:1003600003E014682025AC4314604C7A012C04D1BE
:10037000146810252C43146003E014681025AC4366
:1003800014608C7A012C04D1146808252C43146065
:1003900003E014680825AC431460CC7A012C04D126
:1003A000146804252C43146003E014680425AC434E
:1003B00014608C78A407CD782D062C430D792D047C
:1003C0002C434D792D052C430D886D1E2C43D46193
:1003D0001468640864001460002300E05B1C546827
:1003E000E407E40F002C02D0054CA342F6D1546878
:1003F000E407E40F002C01D0002000E0012030BD14
:10040000FFFFFF0010B50C010346FF33B1331B594A
:10041000042423401372137A002B07D10C010346E6
:10042000FF33B1331B595B0D136006E00C0103462B
:10043000FF33B1331B59DB0853600C010346FF3314
:10044000B1331B590224234053720C010346FF337E
:10045000B133E3185B681B071B0F93720C01034653
:10046000FF33B133E3185B681B041B0ED3740C011C
:100470000346FF33B133E3189B68D3720C01034684
:10048000FF33B133E3189B681B041C0E14730C017B
:100490000346FF33B133E3189B681B021C0E5473F1
:1004A0000C010346FF33B133E3189B681B0E9373B3
:1004B0000C010346FF33B133E318DB68D3730C013F
:1004C0000346FF33B133E318DB681B041C0E1474BE
:1004D0000C010346FF33B133E318DB681B021C0E2B
:1004E00054740C010346FF33B133E318DB681B0E71
:1004F0009374002904D1C36820242343C36003E01C
:10050000036920242343036110BD00218171C1715F
:10051000017241728172C1728170C17003210171D7
:100520000221417101210180704730B5024600204F
:1005300093680124A4062340A34200D110E09368ED
:100540000124E4062340A34201D1012008E093687E
:10055000012424072340A34201D1022000E004200B
:1005600004287BD004011346FF3381331B59DC0779
:10057000E40F05011346FF3381335C510B7A002BE6
:100580000FD10B885B054C7A234305011446FF34D9
:1005900081346459234305011446FF348134635187
:1005A00010E04B68DB000C7A23434C7A23430501AF
:1005B0001446FF3481346459234305011446FF3443
:1005C000813463518B7A1B071B0F8B720401134616
:1005D000FF338133E3185B681C09240105011346CE
:1005E000FF338133EB185C6004011346FF33813322
:1005F000E3185B688C7A234305011446FF34813489
:100600002C1963608B7B1B064C7B240423430C7BDF
:1006100024022343CC7A234305011446FF3481345A
:100620002C19A3608B7C1B064C7C240423430C7C7C
:1006300024022343CC7B234305011446FF34813439
:100640002C19E36004011346FF3381331B59012445
:10065000234305011446FF348134635130BD00004B
:1006600010B50C48C0688007800F00280BD00A49DD
:100670000968086800F03CF80648C0682021084373
:100680000449C86004E004490968086800F061F89A
:1006900010BD0000006400401000002010B50121D2
:1006A000880403F07BFC0121480603F087FC10BDA1
:1006B000704700001CB5042208210C4803F0CEFB53
:1006C00004220921094803F0C9FB0320000200901D
:1006D00002216846017103214171002181710121CC
:1006E000C1716946014803F071FB1CBD000400485C
:1006F000F0B585B005466A4600212868FFF782FEFE
:1007000000276C68002615E0009989006A46527A35
:10071000002A01D0022200E00022114388B2218881
:10072000414062881140002901D1012705E00C34C5
:10073000701C86B22889B042E6DC00BF002F06D0CC
:10074000A068002803D06946A2686068904705B099
:10075000F0BDF8B50446002201212068FFF7BAFD7C
:1007600000202075E074E08A002821DDE568268AF3
:1007700016E0687B002810D000206873E08A401ED5
:10078000E082204603F07CFD0746A87BE074FAB2C5
:100790002946204600F032F904E01035701E86B27A
:1007A000002EE6DC00BF002E01D10020E08200BF59
:1007B000F8BD10B504462068FFF701FD10BDFFB578
:1007C00089B004461E460A9820600B986060268116
:1007D0001298E060139820820020E07401202075B8
:1007E0000020E082A061E061002203212068FFF781
:1007F00071FD00250AE000210C2068436268115257
:100800000C2068436268101881606D1CB542F2DBF1
:10081000002505E000202A01E168891848736D1C55
:1008200013988542F6DBFFF739FFFFF743FF206897
:10083000FFF7C5FC06A8FFF768FE14987D2820D0B6
:1008400008DC0A282ED0142827D0322821D064288A
:1008500012D11AE0FA2810D0FF38F538002807D056
:10086000FF38F538002807D10220694608831EE0CA
:100870000420694608831AE000BF082069460883FF
:1008800015E010206946088311E0142069460883AA
:100890000DE078206946088309E0FF202D30694685
:1008A000088304E04B20C0006946088300BF00BFF6
:1008B00003216846C1760B2101770421417701218C
:1008C00008A8417006A92068FFF70EFD0746002F13
:1008D00002D1C01E0DB0F0BD002002900390049024
:1008E0000590002168468174018141818181C18127
:1008F0000182C17401210175417502A8FFF76CFCEA
:100900000121480603F05AFB1E21684601710021AF
:1009100041710121817101A803F0CAFA012203216A
:100920002068FFF7D7FC0020D4E7FFB504460D464A
:100930001646002C08D00A98002805D00B980028ED
:1009400002D02089A84203DC0020C04304B0F0BDDF
:100950000C276F436068C1190A9848600B9888603B
:100960007005C20C0998002801D0022002430398A8
:100970004005C30C022003430888904202D14888F6
:10098000984201D00A804B800020DFE7F8B504468A
:100990000D460027687B00280AD0207D002805D15D
:1009A0000023154A1421E06902F0D6FD0827FF4311
:1009B000012080F3108800BF204603F061FC06464A
:1009C000701C002807D0A87BE074F2B229462046AC
:1009D00000F014F809E001206873E08A401CE0820E
:1009E000012211462068FFF775FC002080F3108873
:1009F00000BF3846F8BD000010810000F0B585B09A
:100A000006460C461746002168460172217981721C
:100A1000002505E0601D415D02A8033041556D1CB5
:100A2000082DF7DB2068400D0090002069464872D1
:100A30003068FFF77AFD012211463068FFF74AFC63
:100A400005B0F0BDF0B504460D46002C02D0208A5A
:100A5000A84201DC0020F0BD2F01E068C119560555
:100A6000760D7605002B01D0022006430E60059816
:100A70000871002048730698002801D0012000E08A
:100A8000002088730846E6E770B50446E6692068EA
:100A90008569A069A8424CD0A5612068C06808217A
:100AA000084000280BD02B46224A1321304602F082
:100AB00053FD2068C068082188432168C86004206D
:100AC0002840002807D02B461A4A303212213046DF
:100AD00002F042FD04E02A461221304602F09BFD5E
:100AE0000220284000280AD0207D002811D12B4662
:100AF000104A10320721304602F02EFD09E02A4646
:100B00000721304602F087FD2A461421304602F0C4
:100B100082FDE807C00F002806D02B4600220121E5
:100B2000304602F019FD04E02A460121304602F069
:100B300072FD70BD10810000FFB583B004460D4604
:100B40000C9F00200290062F01D2401E02900698B2
:100B50002060277120465530A065601DE065206645
:100B600000216420015565200155EC600D98286036
:100B70000E9868600F9828720020687268810026BD
:100B800004E0002021688855701CC6B2BE42F8DB24
:100B9000002000902B46114A11490190059800F061
:100BA000E1FE002000900190059B5C330D4A0C494A
:100BB0001131059800F0D6FE109828612869C461AB
:100BC0000020082103460091019010A807C8FFF7F4
:100BD00039FF6861029807B0F0BD0000B912000843
:100BE0000310000003140008FFB581B004461F463F
:100BF000E5682069FFF748FF6520405D00280AD0BE
:100C00006520435D612212022821284602F0A4FCDF
:100C1000002165204155002628684079002801D030
:100C20000120064328688078002803D12868C0780E
:100C3000002801D01020064320680078EE210840EB
:100C40003043216808706089B84203DA61890398EB
:100C500008186081029800285BD06069407B0028FA
:100C600057D16089B84254DBE96D286E884203D1C0
:100C70006420405D00284CD020680078296E887080
:100C8000296E6269501D082202F0D7FF04226846CF
:100C9000296E02F0D2FF286E08302866A96D286EF2
:100CA000884201D1681D2866002060816420405D73
:100CB00002280AD100216420415500230122120399
:100CC0002021284602F048FC02E000216420415522
:100CD0006068002818D0617A227A914202DA617A3B
:100CE000491C6172617A491EC8B207E0411E890041
:100CF000626851588300D150411EC8B20028F5DC0B
:100D000000996268116000BF61692069FFF73EFECB
:100D100000BF05B0F0BD0000F0B587B004460E4638
:100D20001746207BB04201DC07B0F0BD3802000E50
:100D30000590F100A0684518AF8000202870687009
:100D40000598002809D0A888002806D007210902A4
:100D50000598401880B2069002E000200690A88016
:100D60000949F200A06880180022009202910190C7
:100D7000A08A801981B22069044B0490069AFFF77B
:100D8000D4FD00BFD0E70000910D0008FF07000070
:100D9000024610468B7A012B06D18379002B03D1B2
:100DA000CB7A03700123837170470000FFB583B0D5
:100DB00004460E4617462660069860600C98A060B0
:100DC0000D982073002060730E9820610F98A08208
:100DD000002508E0A9006068425829462046FFF730
:100DE0009BFF681CC5B2207BA842F3DC002000906A
:100DF0002346044A04490190384600F0B3FD002020
:100E000007B0F0BD2914000816100000F7B582B035
:100E100005460F4605200190AC68002F3ED0002605
:100E200038E0A088002832D0A079002809D02078A6
:100E3000002804D001206070002060800490002011
:100E4000A0716088A188884203DA61880498081834
:100E500060806078002815D06088A188884208DB0F
:100E60003346174A1B21286802F076FB00202070C9
:100E700008E02078002805D13346114A1C21286853
:100E800002F06AFB2078052801D000200190083488
:100E9000701CC6B2287BB042C3DC0DE0002606E021
:100EA00000202070A07160700834701CC6B2287BCE
:100EB000B042F5DC002001900198687305B0F0BDE8
:100EC000308100004178491C49B24170012902DBA0
:100ED0000021C94341708178491C49B281700429BD
:100EE00002DB0321C9438170C178491C49B2C1703A
:100EF000042902DB1321C943C1700179491C49B29D
:100F000001716431002908D0682902D0CC290BD1A5
:100F100006E06721C943017106E06421017103E025
:100F20001321C943017100BF00BF4179491C49B277
:100F3000417104290BD005DC6E31002912D00A2939
:100F400017D108E0682909D0722912D10DE0672174
:100F5000C94341710DE0642141710AE07121C94327
:100F6000417106E06E21417103E01321C9434171D3
:100F700000BF00BF8179491C49B2817104290FD09B
:100F800007DC783100291DD00A2914D0142920D17A
:100F90000AE068290BD0722910D07C2919D114E0FD
:100FA0006721C943817114E06421817111E07121CD
:100FB000C94381710DE06E2181710AE07B21C94333
:100FC000817106E07821817103E01321C9438171A9
:100FD00000BF00BF70470000FEB504460D46164630
:100FE0001F4600206070A070E07020716071A071D9
:100FF0002070401EE07101202072A672E78100205F
:101000006072401EA08125610B4800210B4B0194AA
:101010000091029008A807C8FFF787FC0B98606151
:10102000002001210346009101900BA807C8FFF79B
:1010300009FDA0610020FEBD55120008FF07000059
:10104000FFB581B0044616460A9F0B9DA189029800
:101050000818A081002E02D0A089B04202DA2078C0
:1010600000281CD1A089801BA0812078A16948712B
:10107000A1696069FFF78AFC207800280FD1E08918
:10108000B04202DAE089301AA081042104980840B5
:10109000002802D10520207001E07F202070002070
:1010A00000902169C868072102F0B4FD002806D12C
:1010B0002169C868062102F0ADFD002801D0012099
:1010C00000902078042804D0052808D07F2809D172
:1010D00002E0E078E07105E0A078E07102E0012034
:1010E000E07100BF00BF2169C868122102F092FDC3
:1010F000002802D00120207236E02169C86818213A
:1011000002F088FD002802D0607920722CE021696D
:10111000C8681B2102F07EFD002806D12169C8683D
:101120001C2102F077FD002802D0207920721BE0FC
:101130000098002806D12169C868012102F06AFDE3
:10114000002802D0E07820720EE0002F09D00220A3
:101150002056002802DB0020C04300E0012020725E
:1011600002E00020C0432072002D70D020780528B6
:101170006DD10098002807D0A878002802D0A87860
:10118000022801D110200743002F60D010203840E2
:1011900000282BD06878002802D17F20207025E01D
:1011A0006878022802D1042020701FE02169C868F5
:1011B000122102F02FFD00280DD12169C8681B21E2
:1011C00002F028FD002806D12169C8681C2102F020
:1011D00021FD00280AD02878002802D17F20207025
:1011E00004E02878022801D104202070F807C00FFD
:1011F00000280AD0E878002802D17F20207004E07F
:10120000E878022801D104202070202038400028EE
:101210000AD02879002802D17F20207004E02879A4
:10122000022801D1042020708020384000280AD0F4
:101230006879002802D17F20207004E068790228B4
:1012400001D1042020702078052800D0A681607A82
:1012500005B0F0BD30B5024610460B7B8C7A022CEF
:1012600028D1002B02D0847A9C4223D1CC7A802CC6
:1012700015D004DC012C07D0022C19D10CE0812CF4
:1012800010D0822C14D110E005692D682D78002D26
:1012900001D1052505700BE00425057008E07F25C8
:1012A000057005E00225457202E00125457200BF88
:1012B00000BF00BF30BD000030B5014600240A6801
:1012C00048680378C87D00280DD0507A8D7D002DA8
:1012D00002D14D68287005E08D7D854201DD084C06
:1012E00000E0002409E0887D002805D1002B01D111
:1012F000507202E0034C00E0034C204630BD000079
:10130000240000083000090602000106F0B585B08F
:10131000054600272C68686802F0E0F90646E87D7B
:10132000002842D10390012040073040002801D01E
:101330001F4F0BE0012080073040002806D0207AA4
:10134000002801D01B4F01E001200390002F2BD17A
:101350007005400D60810398002818D0002002908D
:10136000207D002805D0012002900020E075A075A6
:10137000A06100210298019100906289218E0023D2
:10138000A06AFFF75FFBE0620120207201E000200D
:101390002072094800210194009102906289A18C79
:1013A000064B206AFFF7C1FA00BF384605B0F0BD12
:1013B0003000090622000008D92F0008FF070000AE
:1013C000F8B5054600272C68686802F087F90646DC
:1013D000E87D002813D1E068002802D1002E00D05B
:1013E000E075E66070084100401820612069B04255
:1013F00002D20020C04320610020A075A0613846C1
:10140000F8BDF8B5044600272568606802F066F963
:101410000646E07D002804D02A789119606802F021
:10142000B1FC3846F8BD0000F0B585B00446002098
:1014300003902668606802F051F90546E07D0028B7
:1014400038D12802070EA8B20290E80DC005002886
:1014500002D01A48039022E0029800281DD0002FE5
:101460001BD0002015E083007268D1580A02120ECA
:1014700001928AB20092A27D521E824207D0009A47
:10148000002A04D0019A974201D10C4A0392411CD0
:10149000C8B2317B8142E6DC01E000200390039872
:1014A000002806D1A07D401EC1B22A463046FFF773
:1014B00033FC00BF039805B0F0BD000043000406F4
:1014C000FEB50546002002902C6868680678E87D25
:1014D000002815D10027E068002802D009480290B2
:1014E0000DE02675002E00D0012700200097019006
:1014F0006289218E0023A06AFFF7A4FAE06200BF90
:101500000298FEBD22000008F8B5044600272568B1
:10151000606802F0E3F80646E07D002807D0A07D71
:10152000002804D02A789119606802F02BFC384614
:10153000F8BD000070B505462C68E87D00281AD07B
:10154000A87D012815D16868018889B2E28A914294
:1015500006D1E18A002903D0227D01688918016043
:10156000617E002904D10122D20701681143016084
:1015700000BF002070BD207E04210840002801D05B
:101580002348F7E720690078052806D1207EC007A8
:10159000C00F002801D01F48ECE7A87D012828D102
:1015A0006E681D4930680840002801D01B48E1E7FB
:1015B000E08A217D4018318889B2884207D130689D
:1015C000800F80073060E18A306840183060607EAC
:1015D000002809D03068A168496848408000800828
:1015E000002801D00D48C5E72046316800F0EAFB2D
:1015F0000CE0A87D022809D169680878F12804DB8D
:101600000878FD2801DC0548B4E700BF0020B1E7F9
:1016100002000106220000080080FF3F300009069A
:1016200070B588B004462568E07D00280AD061685E
:10163000A07D002803D1A87E002800D108700020DA
:1016400008B070BD287E08210840002801D01B4842
:10165000F6E728690078052806D1287E022108408F
:10166000002801D01648EBE7687E002801D0154815
:10167000E6E7A07D00280BD166683078082802DDF7
:101680001048401CDCE73178284600F0CFFBD7E754
:101690006668002106910591A87E002801D00948BE
:1016A000CEE704A805A906AA00920191029031682C
:1016B00007AB0022686800F079FAC1E70200010672
:1016C000220000083000090670B505462C68A87D88
:1016D000042801D1524870BDE87D00281AD0A87DA9
:1016E000012815D16868018889B2E28A914206D141
:1016F000E18A002903D0227D016889180160617E9A
:10170000002904D10122D20701681143016000BF02
:101710000020E0E7207E04210840002801D0414855
:10172000D9E720690078052806D1207EC007C00FC0
:10173000002801D03C48CEE7A87D01282FD16E6853
:101740003A4930680840002802D035481F30C2E7C7
:10175000E08A217D4018318889B2884207D13068FB
:10176000800F80073060E18A306840183060607E0A
:1017700000280AD03068A168496848408000800885
:10178000002802D026481F30A5E7E06C827B204667
:10179000316801F045FDFF213D2001553EE0A87D67
:1017A000022815D169680878F12805DB0878FD283A
:1017B00002DC1B481F308EE70878F02801DC01208E
:1017C00000E00020E26C9073FF223D20025525E0EE
:1017D000A87D032809D1607E002802D010481F3060
:1017E00079E700214420015318E0A87D052804D1A1
:1017F0006868028846210A5310E0A87D06280DD1AA
:101800006968607E002802D005481F3063E70878C9
:10181000F02802DD02481F305DE700BF00205AE7D4
:101820001100090602000106220000080080FF3FA7
:1018300070B588B004462568E07D00280AD061684C
:10184000A07D002803D1A87E002800D108700020C8
:1018500008B070BD287E08210840002801D01B4830
:10186000F6E728690078052806D1287E022108407D
:10187000002801D01648EBE7687E002801D0154803
:10188000E6E7A07D00280BD166683078082802DDE5
:101890001048401CDCE73178284601F0EFFCD7E720
:1018A0006668002106910591A87E002801D00948AC
:1018B000CEE704A805A906AA00920191029031681A
:1018C00007AB0122686800F071F9C1E70200010668
:1018D000220000083000090670B504460026606842
:1018E00001F0F3FE0546E07D002822D12846FA2DBE
:1018F00018D008DC0A2811D0142810D032280FD0B4
:101900007D2813D10DE0FF38F53800280BD0FF38C3
:101910002D38002808D0C82808D106E000BF00BF35
:1019200000BF00BF00BF00BF00BF01E0024E00BF0C
:1019300000BF304670BD000030000906014600209F
:101940004B681A78CB7D002B09D1002A01D10448BD
:1019500005E07F2A02D90248401E00E000207047BF
:1019600032000906FFB504460A9E2046019900F0A0
:101970002BF805461348854222D20C216943636B3C
:1019800058180C216943E36A59188A780299016052
:1019900003994160099900290FD0002E0DD096427D
:1019A0000BD1099B8360002104E0002387687B54EE
:1019B0004B1C99B29142F8DD01E00021816000BF2B
:1019C000FFBD0000FFFF0000F0B505460E460022F7
:1019D000288E401E83B218E0D018C70F3F18FF03AF
:1019E000390C0C274F43E86AC4192088B04201D152
:1019F0000846F0BD2088B04205DD0B46002B04D020
:101A0000581E83B201E0481C82B29A42E4DB9A423B
:101A100008D10C275743E86AC4192088B04201D185
:101A20001046E6E70048E4E7FFFF000070B5044613
:101A30000B460C205843E56A29180E48834201D111
:101A4000002070BD8878002801D18888F9E788884F
:101A5000002809D08888002A05D118260546B543F4
:101A6000284604252843ECE7D5008868401980887B
:101A7000E7E70000FFFF000030B504460B460C20EE
:101A80005843E56A29180F48834201D1002030BD30
:101A90008878002801D18868F9E7888800280DD067
:101AA000002A01D1881CF2E78868002800D1EEE7FF
:101AB000501ECD8868438D684019E8E7D5008868D6
:101AC0004059E4E7FFFF000030B503460748814274
:101AD00002D0586B002801D1002030BD0C204843B3
:101AE0005D6B2C18A0688018F7E70000FFFF00006E
:101AF00030B504460B460C205843E56A29181448B3
:101B0000834201D1002030BD8878002806D1886842
:101B1000002801D12020F6E7C888F4E7888800284B
:101B20000AD0002A01D10120EDE78868002801D100
:101B30002020E8E7C888E6E7D500886840590028F3
:101B400001D12020DFE7D50088684019C088DAE796
:101B5000FFFF000010B502461046437E002B24D044
:101B600003691B78052B20D18B7A847EA3421CDB72
:101B7000838F002B19D1CC7A3E231C540C7B3F233E
:101B80001C544C7B40231C548C7B41231C54CC7B29
:101B900042231C540C7C43231C544C7C44231C5473
:101BA0008C7C45231C540123838710BDFFB583B073
:101BB0000498040C04980004000E02900498C6B225
:101BC0007007400F002802D04C4807B0F0BDF61057
:101BD0000C9800788019C1B20C9801700C980078AC
:101BE000082802DD4548401CEFE7072C22DC02985C
:101BF00000281FD10421022C01DA00210AE0022C66
:101C000001D0052C01D1012104E0032C01D0062CC8
:101C100000D10221B14201DA3848D6E70598002800
:101C200003D1374A0698026002E0364A06980260FD
:101C30000020CAE721460398FFF7C6FE074632494F
:101C40008F4208D00398C16A0C2078430818817825
:101C50000298814201DA2D48B7E73946029A039883
:101C6000FFF7E4FEC5B20598002809D110202840EE
:101C7000002803D008202840002801D11F48A4E7ED
:101C80000598002809D020202840002803D00420EF
:101C90002840002801D1194897E73946029A03984D
:101CA000FFF726FFC0B201900198B04201DA134855
:101CB0008BE780202840C1090E9801703946029AAE
:101CC0000398FFF7D9FE06990860402028400028B5
:101CD00012D00C990978881B09E00D990978012226
:101CE00082401143CAB20D990A70411C08B20C9986
:101CF00009788142F1DC00BF002066E7410004065C
:101D0000EC030020E8030020FFFF000000000206B3
:101D1000FEB504460E4615461F46266065600B98C4
:101D2000A0600C98E0602761089820750998E0820F
:101D30000A982076002000902346114A01902846F8
:101D40000D99FFF70FFE0020009023460D4A0190E9
:101D500028460E99FFF706FE0020A0870F98A06482
:101D60004C21109808530C980178204600F05EF83A
:101D70000B984168204600F025F80020FEBD0000C9
:101D8000351500082116000830B5818F002915D0BF
:101D9000417E002912D00169097805290ED1034638
:101DA0003E3302461C32817E05E01C7820CA2C702E
:101DB0005B1C4C1E21B20029F7DC00BF002181878B
:101DC00030BD0000FEB504460E46B5B214483040A2
:101DD00000280DD1A07E00280AD0002D08D0E08A6E
:101DE000A84202D1207D401985B20120607603E02F
:101DF000002500206076A0870A4800214C2201942B
:101E000000910290115B084B2A46A06CFEF78DFDF5
:101E10000746002F02D000206076A087FEBD00009C
:101E200000F8FFBF551B0008FF070000F0B58DB09C
:101E300004460E4600200C900B90E068001D0A90AE
:101E4000374638E00021089108A8007C07900A98DE
:101E5000006805900A98001D0A9006A808A90CAA17
:101E6000009201910290606809AB002204900599EC
:101E7000FFF79CFE0B900B9800280AD000200C90D6
:101E800020680490412252021A21059B01F064FB54
:101E900013E0079D09E0AA0020461C3009998150F3
:101EA0000998401C0990681C05B208A8007C85426E
:101EB000F1DB781E07B2002FC4DC00BF08A8007C4D
:101EC000A0760B980DB0F0BD13B504468020216FAD
:101ED00048715020015D206F81715020005B00121D
:101EE000216FC8715220015D206F0172216F084679
:101EF000093001A901F0B1FE00215D2001556820E3
:101F00000155216FE06EFEF741FD1CBDFFB583B0AA
:101F100004460F461E460C9D002D1FD1012228218C
:101F20000A550D99E1620E9921860F99616300208F
:101F300010E000210C234343626BD1500C23434338
:101F4000626BD21851600C234343626BD2189160CC
:101F5000411C88B20E998842EBDB08E00021282062
:101F60000155E86AE062288E2086686B60635C2118
:101F70001098085500215D20015568200155092061
:101F80004002864209D10020009023465C33104A6B
:101F9000314601902046FFF7E5FC0E4800210E4B2C
:101FA0003A4601940091029012991198FEF7BDFCF7
:101FB0001398E06600200821034600910190059ADD
:101FC00014991398FEF73EFD2067002007B0F0BD7E
:101FD00009150008112D0008FF07000070B5044620
:101FE0000E461546502006535220055531462046D0
:101FF000FFF7EAFC6087608F2649884201D12648B6
:1020000070BD608F0C225043E16A08188078A842A6
:1020100001DA2248F4E7618F2A462046FFF72CFDBB
:1020200060640020E063606B002807D0618F0C23A0
:102030005943626B50184168E16300BF2046083085
:102040002064618F2A462046FFF752FD482108533D
:10205000618F2A462046FFF7E9FC4A210853618F29
:102060002A462046FFF730FDE06401215420015547
:1020700055200155606C002802D04820005B00E02C
:102080000020A0654820005B202801DD0448B7E758
:102090000020B5E7FFFF000000000206110009065E
:1020A00047000406FFB585B0044600200490039065
:1020B0005D20005D002805D16820005D002801D169
:1020C00009B0F0BD0698002806D100215D20015519
:1020D000682001550020F3E7206F407B00286ED177
:1020E0006820005D002803D15D20005D2628F6D120
:1020F000207845115D20005D262802D00021602057
:1021000001530021206F0172206FC171206F817116
:10211000206F4171206F0173206FC172206F817237
:10212000206F41726820005D002808D02078802848
:1021300005D15D20015568200155481EC0E75D208E
:10214000005D002803D05D20005D049056E0012D65
:102150000CD0022D0AD0062D08D0052D06D0FA4944
:102160002046FFF7B1FE0020C043A9E7A078000297
:10217000637818430146E2782046FFF72FFF0646B2
:10218000002E06D031462046FFF79EFE0020C043B9
:1021900096E7012D01D0062D15D14A20005B0821BC
:1021A0000840002806D1E9492046FFF78DFE0020AF
:1021B000C04385E7012D03D1112004901DE01EE0EE
:1021C0001420049019E02021204600F047FD064627
:1021D000002E06D031462046FFF776FE0020C04391
:1021E0006EE7052D07D14820005B6179884202DD4A
:1021F0002420049001E02120049000BF00BF602053
:10220000015B0898814206DA6020015B0798081894
:1022100081B2602001536020015B0898814219DB84
:102220005D20005D15280DD15E20005D002809D0DD
:10223000206F407B002805D1012003905D20005DC8
:10224000049007E0C049491E2046FFF73DFE0020EC
:10225000C04335E70498002800D131E704982128CD
:102260006FD007DC1138030001F08EFF06127B7A75
:10227000F0EFEE7A2238062872D243007B449B8826
:102280005B009F448E026D002C039003A903C204DF
:102290006020216F48716178206F8171A178206F73
:1022A000C171E178206F0172207802210840002876
:1022B0002DD02078C007C00F002805D02078000757
:1022C000800F04210D1A00E004252179206C017093
:1022D0006179206C4170A179206C8170E179206C6A
:1022E000C1702946204600F031FD0746002F06D078
:1022F00039462046FFF7E8FD0020C043E0E6002114
:102300005D200155216FE06EFEF740FB27E020784D
:10231000C007C00F002816D0211D01A801F09DFCA8
:102320000199A1654820005B019988420AD0606C40
:10233000002807D086492046FFF7C6FD0020C0438D
:10234000BEE6E3E100BF0020208700215E200155AA
:1023500012215D200155216FE06EFEF717FB1FE291
:10236000FCE32078E0210840002806D0764920468A
:10237000FFF7AAFD0020C043A2E620781021084004
:1023800006095E20005DB04206D072492046FFF784
:102390009BFD0020C04393E620780007400F0721F3
:1023A0000D1A208F41194820005B814220DD606CAE
:1023B000002807D06649891C2046FFF785FD0020CC
:1023C000C0437DE6002155200155218F204600F0B5
:1023D000BDFC0746002F06D039462046FFF774FDA6
:1023E0000020C0436CE620214820015300202087B4
:1023F000002608E0701C215C228F501C2087206C76
:102400008154701C86B2AE42F4DB2078C007C00F46
:10241000002813D0012155200155218F204600F0BE
:1024200095FC0746002F06D039462046FFF74CFDA5
:102430000020C04344E600215D2001555E20005D80
:10244000002804D0102003E013E162E012E0002035
:1024500020210843216F48715E20005D002801D1D2
:10246000012100E000215E200155216FE06EFEF7A2
:102470008DFAE2E32078E1210840C02806D03249F5
:102480002046FFF721FD0020C04319E6A420216F5C
:1024900048716178206F8171A178206FC171E178F6
:1024A000206F0172042162200155015D206F41728D
:1024B0002078042108408108632001550021642010
:1024C0000153207802210840002815D0211D01A8C1
:1024D00001F0C3FB0199A1654820005B0199884286
:1024E00009D0606C002806D019492046FFF7ECFCA3
:1024F0000020C043E4E500BF0020208700215E20CB
:10250000015515215D200155216FE06EFEF73EFA61
:1025100093E3012002900398002802D0002020704D
:1025200037E05E20005D002805D120784006400E8F
:10253000012800D081E320784106490E5E20005D2D
:10254000814209D179E3000001000405020001067F
:10255000100007060000030520784106490E5E20A2
:10256000005D401C814214D15E20005D401CC1B260
:102570005E20015500200290002608E0701C215CBE
:10258000228F501C2087206C8154701C86B2072E2D
:10259000F4DB029800280DD15E20015D6220005D11
:1025A000814207DA207880210840002802D1039870
:1025B000002858D0A220216F48715E20015D206F55
:1025C000817100215E200155606C002829D1208F87
:1025D000002826D0207880210840002821D06320C0
:1025E000005D002807D064231A5B218F206C01F066
:1025F00005FE64210853002155200155218F2046F6
:1026000000F0A4FB0746002F06D039462046FFF70E
:102610005BFC0020C04353E52021482001530020EB
:102620002087208F2021081A85B2FB48854201DDD2
:102630007F2003E007212846FDF770FDC1B262202C
:102640000155015D206FC17120788021084000286C
:1026500005D00298002802D116215D200155216F76
:10266000E06EFEF793F90398002801D0012027E5DA
:10267000E3E22078E1210840C12806D0E74920465E
:10268000FFF722FC0020C0431AE52078C006450F62
:10269000208F401B20876320005D00281AD0642310
:1026A0001A5B218F206C01F0A9FD64210853611C85
:1026B00001A801F0CDFA6420005B69468988884250
:1026C00007D0D649C91C2046FFF7FEFB0020C043B7
:1026D000F6E400BF012155200155218F204600F06E
:1026E00035FB0746002F06D039462046FFF7ECFBA6
:1026F0000020C043E4E4A120216F4871216FE06E07
:10270000FEF744F900215D20015596E26178206FC3
:102710008171A178206FC171E178206F017248202A
:10272000005B04281ED8002607E0206C825D206F25
:10273000401D311D4254701C86B24820005BB042DF
:10274000F3DC4820005D0421081A8000432108437F
:10275000216F4871216FE06EFEF718F900215D20AE
:1027600001551DE00020208700215E200155222117
:102770005D200155A06D00280BD0A06D0190216F48
:102780000846093001A901F068FA4120216F48711B
:1027900002E04020216F4871216FE06EFEF7F6F8ED
:1027A0004BE22078E0210840602806D09B49204673
:1027B000FFF78AFB0020C04382E420781021084004
:1027C00006095E20005DB04206D095492046FFF71D
:1027D0007BFB0020C04373E44820005B218F401A3C
:1027E00085B2072D00D90725606C00283BD1072D45
:1027F00039D25520005D002835D1002606E0218F12
:102800008919206C415C8155701C86B2AE42F6DBA2
:10281000206C411921645220025D618F2046FFF730
:1028200067F9401B81B2482001532021204600F067
:1028300015FA0746002F06D039462046FFF744FB1D
:102840000020C0433CE4206C411B21644820005B15
:10285000401981B248200153002020874820055BA1
:10286000072D00D9072500260AE0218F481C208764
:10287000206C425C206F401D711C4254701C86B25B
:10288000AE42F2DB5E20005D002801D0102000E0A7
:1028900000200721491B49000843216F48715E2031
:1028A000005D002801D1012100E000215E200155DA
:1028B000218F4820005B81420CD15520005D00280B
:1028C00008D0206F407901210843216F4871002111
:1028D0005D200155216FE06EFEF758F8ADE161789B
:1028E000206F8171A178206FC171E178206F017232
:1028F00020780421084000280BD0012163200155D5
:102900004822115B0022206C01F078FC64210853FE
:1029100004E00021632001556420015321796220E5
:10292000015520788007800F002807D16220005DC4
:10293000002803D06220005D7F2806D93749204651
:10294000FFF7C2FA0020C0430FE46220015DC80017
:10295000411A4820005B81420BD95520005D0028B8
:1029600007D12E49491C2046FFF7AEFA0020C0438C
:102970000EE4A06D00280BD0A06D0190216F0846D9
:10298000093001A901F069F9C620216F487102E000
:10299000C420216F487125215D200155216FE06E13
:1029A000FDF7F4FF49E12078E3210840A32806D091
:1029B0001A492046FFF788FA0020C04310E400209F
:1029C000208700215E2001556720015568200155B0
:1029D00026215D20015500BF6820005D00287DD0C4
:1029E0002078E3210840A22806D00C492046FFF7B2
:1029F0006BFA0020C0432CE4607801905E20015DFA
:102A0000019881420EDA0549491C2046FFF75CFA1D
:102A10000020C0431DE4000079030000010004050C
:102A2000000003056720005D00281FD06220015DC3
:102A3000019881421AD16620005D0721081A8000A2
:102A4000C1210843216F48716320005D002805D033
:102A5000216F881D2146643101F0FAF827215D209D
:102A60000155216FE06EFDF791FFE6E00198C1008E
:102A70000E1A002000900AE0206C815D024600984A
:102A80001154701C86B20098401C80B200904820FF
:102A9000005BB042F0DC4820015B0198C200101AD4
:102AA000081A81B248200153A17862200155606C58
:102AB000002840D14820015B6220005DC200101A4E
:102AC000814238D25520005D002834D14820055B72
:102AD000206C411921645220025D00E049E0618FC1
:102AE0002046FFF705F8401B81B248200153202102
:102AF000204600F0B3F80746002F06D0394620469E
:102B0000FFF7E2F90020C0431AE46320005D0028CB
:102B100008D064231A5B4823195B206C01F06EFB1C
:102B200064210853206C411B21644820005B40193C
:102B300081B2482001536220015DC800411A48203B
:102B4000005B81420BD95520005D002807D1414927
:102B50002046FFF7B9F90020C0430DE466E00020ED
:102B6000208700215E20015567200155682001550E
:102B700000BF5E20015D6220005D814203D06720BE
:102B8000005D002801D0012005E4002160200153F0
:102B90004820005B218F401A85B2072D00D90725F8
:102BA00000260AE0218F481C2087206C425C206FA1
:102BB000401D711C4254701C86B2AE42F2DB5E2096
:102BC000005D401CC1B25E200155206F4171218F14
:102BD0004820005B814212D15520005D00280ED0B4
:102BE000206F407980210843216F48716620055588
:102BF0005E20015D62200155012167200155216F92
:102C0000E06EFDF7C3FE012014E42078E1210840C6
:102C1000A12807D00F49491E2046FFF755F900208B
:102C2000C04307E400215D20015506E00A49204623
:102C3000FFF74AF90020C04327E400BF00216820C5
:102C400001555D20005D002801D001201DE4002019
:102C50001BE400000200040547000406FEB504461C
:102C60000F46206C0290666C4820005B01900025A6
:102C70004A20005B04210840002801D12248FEBD03
:102C8000606B002804D0608F0C225043616B0D18DC
:102C9000002E13D0012001F097FA06E03178029857
:102CA0000170761C0298401C02900198411E89B266
:102CB00001910028F2D101F087FA04E02868002889
:102CC00001D11248DBE70121532001552868002873
:102CD00014D020463C30296888470090009800288E
:102CE00001D00098CBE74820005B002803D04820A3
:102CF000005BB84201DD0548C1E700BF0021542058
:102D000001550020BBE70000010001064700040652
:102D100010B5024610468B7A082B16D168231B5C2F
:102D2000002B12D1CB7A03700B7B43704B7B8370EB
:102D30008B7BC370CB7B03710B7C43714B7C8371AA
:102D40008B7CC371012468231C5410BDFEB504465E
:102D50000D46206C0190666C4A20005B08210840FB
:102D6000002801D11F48FEBD002E02D14820055386
:102D700005E04820005BA84201D01B48F3E7002192
:102D800053200155606B002813D0608F0C225043F4
:102D9000616B0F18386800280AD020463C3039682B
:102DA000884700900098002801D00098DBE700BF1A
:102DB00000BF002154200155002E11D0012001F048
:102DC00003FA06E00198007830700198401C761CE8
:102DD00001902846691E8DB20028F3D101F0F4F964
:102DE0000020C0E70200010610000706FFB585B00D
:102DF00004460E461F460F9D0020049001218907BE
:102E00000E980840800F20720E984005400D60819A
:102E1000E56068084100401820612069A84202D29C
:102E20000020C0432061109820751098002801D020
:102E300001200490012060750020A075A061E0755C
:102E4000A08326606760119820621298A0840020F9
:102E5000009023461B4A1C4901900798FEF782FD0B
:102E6000002000902346194A1749491C01900798F1
:102E7000FEF778FD002000902346154A12491431D0
:102E800001900798FEF76EFD124800210194009111
:102E900002906289104B12991198FDF746FD139824
:102EA000A062149820860021049801910090628904
:102EB0000B4614991398FDF7C5FDE062002009B098
:102EC000F0BD00000D13000805100000C11300083C
:102ED000C1140008D92F0008FF070000F8B5044608
:102EE0000F4615460020009060680078052803D042
:102EF000606800787F2859D1A07D002804D0A0699F
:102F0000002801D101200090012080F3108800BF2B
:102F1000A069C619A069B04200D2A661002080F362
:102F2000108800BF207A00281CD0E068002819D043
:102F3000E168A069884215D3E07D401CC0B2E0750D
:102F4000217D884201DD0120E0750120A07500206F
:102F5000A061E07DE16A4871E16AA06AFDF716FDB3
:102F600001200090002D0DD0A069A84207D9607DF6
:102F7000002801D0022000900020607504E00120AC
:102F8000607501E001206075E06800280ED02169BD
:102F9000A06988420AD960680078052806D1812294
:102FA00012021821A369206800F0D6FA6068007840
:102FB000052801D00020A075A08B002807D0A38B86
:102FC000044A1921206800F0C7FA0020A083009865
:102FD000F8BD00004082000030B5024600241046D3
:102FE00045682B78052B01D07F2B1FD1057D002D47
:102FF0000BD08D7A012D05D08D7AFF350135858373
:1030000001240BE0CD7AC57508E08D7A002D05D03E
:103010008D7AFF35FF35023585830124002C05D1DB
:10302000052B01D1012585750025856130BD000086
:10303000FFB583B004460F4616460F9D27606660B5
:10304000A5601098E060069820610C9820750D9896
:10305000E0820E982076002000902346204A0190BE
:1030600030461199FEF77EFC0020009023461D4A51
:10307000019030461299FEF775FC1398A064502118
:1030800014980853FF213D2001550021442001538D
:10309000E9894620015300202064287AFE2801DBBC
:1030A0000120E07610980178204600F0E7F8287AB1
:1030B000F02801DC012000E000200246204669687B
:1030C00000F0AEF8287AF02802DD287AFE2802DB2C
:1030D000287CF02801DD00206076002007B0F0BDDC
:1030E000C916000831180008FFB581B004460D4626
:1030F0001746607E002872D02069007805286ED1BE
:10310000A068007AFD281CDB4420005B00286FD1FA
:10311000E07E002807D1A068C089002868D046203A
:10312000005B002864D1204600F0A0F900285FD1A0
:10313000A068418944200153A068C18946200153F9
:1031400056E0002D54D0A87D002851D0687D00287D
:103150004ED0A869216C88423DD2A068007A002830
:1031600006D1E07E002836D0204600F07FF932E01C
:103170003D20005DFF280ED1287D002807D0A068E3
:10318000007C002803D0FE213D20015503E0A0680B
:10319000017A3D2001553D20005DFE280CD1E87DDF
:1031A000A168097C884216D1A068017A3D200155AA
:1031B000204600F05BF90EE03D20005D401EC1B2EC
:1031C0003D200155002906D1A068017A3D20015516
:1031D000204600F04BF9A869206409E0FFE7A068E9
:1031E000007AFE2802DB0120E07601E00020E07694
:1031F0004420065BF61B002E01DC002000E0B0B28C
:10320000442108534620065B0498361A002E01DC40
:10321000002000E0B0B24621085305B0F0BD000028
:10322000FEB504460E461746B5B213483040002896
:103230000DD1A07E00280AD0002D08D0E08AA84237
:1032400002D1207D401985B20120607602E0002580
:103250000020607678B2A17E502200910190115B2F
:1032600000232A46A06CFDF7EDFBE064E06C00282B
:1032700000D16076FEBD000000F8FFBFF0B58BB056
:1032800004460E4600200A900990E068001D089050
:1032900000213C200155374637E008A8007A069007
:1032A0000898006804900898001D089005A9204619
:1032B0003C300AAA009202910190606807AB01229B
:1032C00003900499FEF772FC0990099800280AD02F
:1032D00000200A9020680390412252021A21049B88
:1032E00000F03AF913E0069D09E0AA0020461C30E0
:1032F000079981500798401C0790681C05B208A8E0
:10330000007A8542F1DB781E07B2002FC5DC00BFD2
:1033100008A8007AA07609980BB0F0BD10B5014658
:10332000C86C401D8B7EC218887E830008461C3006
:103330001C18887E030000F027FF09968472604EF7
:103340003C2A18069600501E02460378201F0446A9
:1033500000680078834207D03C20405C80231840FE
:10336000002801D0012010BD00BF501E0246037886
:10337000201F044600680078834207D03C20405C50
:1033800040231840002801D00120ECE700BF501E68
:1033900002460378201F044600680078834207D065
:1033A0003C20405C20231840002801D00120DAE7AF
:1033B00000BF501E02460378201F044600680078B4
:1033C000834207D03C20405C10231840002801D0E5
:1033D0000120C8E700BF501E02460378201F0446A4
:1033E00000680078834207D03C20405C08231840E6
:1033F000002801D00120B6E700BF501E0246037826
:10340000201F044600680078834207D03C20405CBF
:1034100004231840002801D00120A4E700BF501E5B
:1034200002460378201F044600680078834207D0D4
:103430003C20405C02231840002801D0012092E784
:1034400000BF501E02460378201F04460068007823
:10345000834207D03C20405CC007C00F002801D049
:10346000012080E700BF00BF00207CE7F8B50446DC
:10347000E06C461D27461C37A57E05E001CF00788D
:103480003070761C681E05B2002DF7DC0020E07657
:10349000E16CA06CFDF77AFAF8BD000010B529497F
:1034A00009680868FDF785F92748006800F0BEFE46
:1034B00024490968886B00F0B9FE002408E0A200E6
:1034C000204909681831885800F0B0FE601C04B229
:1034D000042CF4DB002408E0A2001A490968283112
:1034E000885800F0A3FE601C04B2042CF4DB1549DC
:1034F0000968486900F09AFE12490968086900F0F5
:1035000095FE10490968C86800F090FE0D490968E9
:10351000886800F08BFE0D48006800F087FE0949BE
:103520000968486800F082FE0948006800F07EFEE5
:103530000848006800F07AFE02490968086800F04F
:1035400075FE10BD10000020200000201C0000208F
:103550001800002014000020FFB585B004460D4679
:10356000EF106907490F01208840C0B2049000267F
:1035700001200390002C02D10020039010E020795C
:10358000B84204DC652005550020039008E020685F
:10359000C619307804990840002801D00020039013
:1035A0000398002835D0002D03D0307804990843C3
:1035B00030706420005D002803D002216420015592
:1035C00027E007A901A800F043FB002168468171AC
:1035D000C57108A902A800F040FB012000F0F1FD30
:1035E000082201A9E06D00F028FBE06D0830E065DD
:1035F000A16DE06D884201D1601DE065216EE06D36
:10360000884202D1012164200155002000F0D9FD3B
:1036100000BF09B0F0BDF7B584B004460D46EF1009
:103620006907490F01208840C0B20390002601209D
:103630000290002C02D1002002900FE02079B842C5
:1036400004DC652005550020029007E02068C619BB
:10365000307803990840002800D102900298002891
:1036600031D031780398814331706420005D0028A7
:1036700003D002216420015525E000216846017035
:1036800041708170C57006A901A800F0E6FA01201A
:1036900000F097FD08226946E06D00F0CEFAE06D7B
:1036A0000830E065A16DE06D884201D1601DE065E4
:1036B000216EE06D884202D1012164200155002075
:1036C00000F07FFD00BF07B0F0BD0CB501460A78E1
:1036D000684602704A78427000880CBD0CB50146FD
:1036E0000A78684602704A7842708A788270CA788E
:1036F000C27000980CBD0000F0B58FB0FE480068A5
:1037000000285DD1FD48FC490860202000F03AFE09
:10371000F94909680860842000F034FEF84908601F
:10372000802000F02FFEF7490860742000F02AFE88
:10373000F14909684860B720800000F023FEF24993
:103740000860682000F01EFEEB49096888601820B8
:1037500000F018FEE8490968C8601C2000F012FE5D
:10376000E54909680861342000F00CFEE249096867
:103770004861002409E0502000F004FEA200DE4968
:10378000096818318850601C04B2042CF3DB002453
:1037900009E0542000F0F6FDA200D749096828315D
:1037A0008850601C04B2042CF3DB182000F0EAFD02
:1037B000D14909688863202000F0E4FDD3490860FE
:1037C000D348D44908600025CB4800680068002829
:1037D00001D1681C85B2CA480068002801D1681C64
:1037E00085B2C8480068002801D1681C85B2C2486B
:1037F00000684068002801D1681C85B2C248006892
:10380000002801D1681C85B2BB4800688068002888
:1038100001D1681C85B2B8480068C068002801D191
:10382000681C85B2B44800680069002801D1681C92
:1038300085B2B14800684069002801D1681C85B292
:1038400000240AE0A100AC48006818304058002865
:1038500001D1681C85B2601C04B2042CF2DB002488
:103860000AE0A100A448006828304058002801D18F
:10387000681C85B2601C04B2042CF2DB9E48006810
:10388000806B002801D1681C85B2A0480068002820
:1038900001D1681C85B2002D03D00120C0430FB0B8
:1038A000F0BD9D48067F012E01DB7F2E00DD102636
:1038B00099482038C08F0E900821924A0E981268BD
:1038C0000092019102908C4909680B2308688C4989
:1038D0000A689249FCF773FF0746002F03D0FFF7F1
:1038E000DDFD3846DBE70622834800680068824930
:1038F0000968096806920892059107908248006855
:103900003D21874A04960192029103900020009085
:103910000B20C0013218032040023118764800689D
:10392000406809235B020D90FEF7F0FA0746002F6E
:1039300003D0FFF7B3FD3846B1E7314680310122AD
:103940006D4800680068082303930592069104906F
:103950007448011F0A22009201910290664A12687F
:1039600052680D92644A1268D168634A12686D4BBE
:10397000203390680D9AFDF7DFF80746002F03D03B
:10398000FFF78CFD38468AE707200002301807222F
:10399000594909680968002302930492039105902C
:1039A000554800680068544A019300901268D16835
:1039B000514A1268FF23F53310693246FDF70CFBBC
:1039C0000746002F03D0FFF769FD384667E700225E
:1039D0004948006800680123474909680968049359
:1039E000069203910590504801794038C0684E4ACC
:1039F000403A92680092029101903F480068036942
:103A00003D48006842683C48006881683A48006860
:103A100040690D90FFF7EAF90746002F03D0FFF742
:103A20003DFD38463BE7002449E033480068006824
:103A30000D90A01C80B20C900B225202A21892B2E0
:103A400005239B02E3189BB20D990C9805930692EF
:103A500007910890242060433349483141180C20D5
:103A60006043314A183282180023042C04DA200201
:103A7000FF30FF30023000E0002080B20096029359
:103A80000392049101901C48006803691A48006879
:103A90004268194800688068A1000B9016480068C9
:103AA000183040580A900B99FEF732F90746002F5C
:103AB00003D0FFF7F3FC3846F1E6601C04B2042C97
:103AC000B3DB00245EE0A01C80B20B4909680968E2
:103AD0000D225202A21892B20323DB02E3189BB21A
:103AE0000593069207910890242060430A4978398B
:103AF00041181420604319E0100000202004002029
:103B000014000020180000201C00002020000020CD
:103B10000C0800000C00002034030020006400406A
:103B2000744900083000002094010020334A8218B4
:103B30000023042C03DA2002FF30813000E0002053
:103B400080B2009602930392049101902C48006881
:103B500003692B4800684268294800688068A10012
:103B60000D9027480068283040580C900D99FFF7B9
:103B70005FFA0746002F03D0FFF790FC38468EE629
:103B8000601C04B2042C9EDB07211D4800680068FD
:103B900004221C4B1B680093019203910290184968
:103BA00009684A681649096889680D9114490968C5
:103BB000124BFC3B886B0D99FDF7F8F80746002F78
:103BC00003D0FFF76BFC384669E6002000900C49F3
:103BD0000190096800230C4A48680C49FDF7C2FEB1
:103BE000002000900649019009680023084A4868AF
:103BF0000649491CFDF7B6FE002050E66C02002085
:103C000010000020200000203D19000801210000C4
:103C1000D918000870B50246CB104E07760F012563
:103C2000B540ECB2002015799D4205DD1568ED5CCC
:103C30002540002D00D0012070BD10B503460020A6
:103C400003E00C5C1C54441CA0B29042F9DB10BD94
:103C50000A7802704A78427070470A7802704A788F
:103C600042708A788270CA78C2707047FEB5044686
:103C70000D46002700BF206900787F2803D0206907
:103C80000078052800D10127194800784019184903
:103C9000087008460078322804DB0020087020698C
:103CA000FDF710F97D23DB002A4639466068FEF7F0
:103CB000F9F910490B8B0A2169438AB23946E06849
:103CC000FCF792FF0B4845300B49097900910190B0
:103CD0000A498B6F07498A8D29462069FDF7B0F99B
:103CE00006462A463946A06BFDF790F83046FEBDE1
:103CF000240000205401002028000020D4020020CD
:103D000070B504460C490A697D21C9006069FFF756
:103D1000E5F80646022E02D12068FCF7C9FC002512
:103D200007E0AA00214618318858FEF72DF8681CD4
:103D300005B2042DF5DB70BD5401002070B50446BA
:103D400000251CE0A900204628304058C07E0028ED
:103D50000AD1AA00214628318858FFF7DFFAAA00C5
:103D6000214628318958C876AB0022462832D058DF
:103D700001230A226169FFF7B7F9681C05B2042D17
:103D8000E0DB70BD0CB500916A46127802706A469D
:103D9000527842706A46927882706A46D278C270CF
:103DA0000CBD10B50446E007C00F002802D000F09B
:103DB00091FB01E000F08EFB02202040002802D0A1
:103DC00000F088FB01E000F085FB10BDF0B50A466D
:103DD00000210023002400BF3DE001258D402B463B
:103DE00015681D402C469C4234D11579012D02D016
:103DF0001579022D16D185684F000326BE40B543C4
:103E0000856055794E00B540866835438560858864
:103E100001268E40B5438580858896798E40B6B25E
:103E20003543858005684F000326BE40B5430560D5
:103E300015794E00B540066835430560C5684F00EA
:103E40000326BE40B543C560D5794E00B540C6686F
:103E50003543C560491C1029BFD3F0BDF0B5002320
:103E600000244D07EE0E1546B5402B46CD10AE0092
:103E700005462035AD594E07F70E0F26BE40B54317
:103E8000CE10B60007462037BD51CD10AE003D46DE
:103E9000AD591D432C46CD10AD003E467451F0BDCA
:103EA00000BFFEE710B500F0FFFA10BD704700003C
:103EB00000218278002A27D0184A03231B02D21837
:103EC00003789B109B00D15802789207D30EFF22F3
:103ED0009A400B469343194642789207120E037894
:103EE0009B07DB0E9A4011430C4A03231B02D21896
:103EF00003789B109B00D1500278D306DB0E012281
:103F00009A40064B1A6007E00278D306DB0E0122C6
:103F10009A40024B80331A607047000000E100E0D5
:103F200010B5002819DA1A4A03071B0F083B9B0833
:103F30009B00D2588307DC0EFF23A3409A438B07D4
:103F40001B0E8407E40EA3401A43114B0407240FF1
:103F5000083CA408A4001A5118E00E4A03231B02CF
:103F6000D21883089B00D2588307DC0EFF23A3409E
:103F70009A438B071B0E8407E40EA3401A43054B9C
:103F8000032424021B198408A4001A5110BD000048
:103F90001CED00E000E100E070470000002905D0C2
:103FA000054A52690243044B5A6104E0024A5269CD
:103FB0008243014B5A61704700100240002905D02E
:103FC000054AD2690243044BDA6104E0024AD2692D
:103FD0008243014BDA61704700100240002905D08E
:103FE000054A12690243044B1A6104E0024A12694D
:103FF0008243014B1A617047001002407047000075
:10400000064801880088401C044A1080642903D1B6
:1040100000201146088000BF00BF7047000000204C
:10402000194800680121084317490860084640689C
:104030001649084014494860084600681449084079
:1040400011490860084600680121890488430E4927
:104050000860084640683F21090488430A494860CF
:104060000846C06A00090001C8620846006B094999
:104070000840054908630846406B40084000486313
:104080000020886070470000001002400CB8FF0854
:10409000FFFFF6FE2CFEFCFF10B50121880700F0A3
:1040A00019F80B480068401C09490860322108488B
:1040B0000068FCF71DF8002909D10920C006808A94
:1040C000202108430921C906888200F091F910BD1A
:1040D00004000020CA43028270470000002904D077
:1040E000028801231A43028003E00288014B1A4030
:1040F00002807047FEFF0000002A03D083890B4333
:10410000838102E083898B43838170470022028888
:10411000154B984206D001239B07984202D0134BBF
:10412000984203D1124B1A404B881A43114B9842C4
:1041300003D0114B1A400B891A4302804B68C362AB
:104140000B880385084B984208D00C4B984205D049
:104150000B4B984202D00B4B984201D18B7A0386CD
:104160000123838270470000002C014000040040BE
:104170008FFF000000100040FFFC000000400140E5
:10418000004401400048014030B47446641E257864
:10419000641CAB4204D3635D5B00E31830BC18477A
:1041A0001D46F8E702E008C8121F08C1002AFAD12C
:1041B00070477047002001E001C1121F002AFBD1A7
:1041C000704780F31088704780F3108870470000B4
:1041D00010B50220FFF7E5FDFFF78EFA0446002C2C
:1041E00008D00549096823466122120288682A21FD
:1041F000FFF7B2F910BD000010000020F0B5034633
:104200000C4600210BE015125E5C75402846150631
:104210002D0C4600044FBE5B75402A46491CA14246
:10422000F1D31046F0BD0000504C000810B5002836
:1042300023D0124B0022001F196803E0814203D8EB
:104240000A4649680029F9D1002A0AD01368841A5D
:104250009C4204D1006818181060104602E05060BB
:1042600000E01860002907D002680B1A934203D1BE
:104270000B68D21802604968416010BDF00300204D
:104280000246002100BF27E0002904D001290CD0FC
:1042900002291ED113E01068806801239B06184094
:1042A000002801D048B2704713E0106880680123ED
:1042B000DB061840002801D048B2F4E709E0106896
:1042C000806801231B071840002801D048B2EAE7A4
:1042D00000BF00BF481CC1B20329D5DD0020C04388
:1042E000E1E7000070B50026FFF7DCFD00F030F9D3
:1042F00000F0FAF800F0B2F82BE00F200121814025
:104300001C4A116000BFFFF763FF0F2001218140AD
:10431000184A803A116000BF002617480068174904
:10432000086014E01448006814490968451A1248E6
:10433000006812490860A8B200F066F806466424D6
:104340000F488487C08FA04201D20D48C487002E39
:10435000E8D0022ED1D1012080F3108800BF0020C8
:10436000FFF71FFD0220FFF71CFDFFF797F8002065
:1043700070BD000080E100E0040000200800002083
:1043800028000020F0B50B30C108C900144F0026EA
:10439000144A0FE003688B420BD38B4205D95C1A99
:1043A0004318456830C3083B00E04368136002C00F
:1043B00004E0021D10680028ECD13046002803D12B
:1043C0003868002801D00020F0BD064A0648106079
:1043D000064A121AD208D20044C001203860D7E73A
:1043E000F4030020F0030020640400206006002095
:1043F00010B504480068FFF783FC02480068FFF727
:104400009DFC10BD1000002070B50446002521461B
:1044100011480068FFF72AFC05460F490968096939
:1044200007228A56D117491C002901DD012100E02D
:104430000021094A126812690823D356DA17521C60
:10444000002A01DD022200E0002208461043FFF7A7
:10445000A8FC284670BD0000100000200E4801682E
:104460008030806D814201D000BFFEE70B480068BC
:104470000A49896C884201D000BFFEE708480068FD
:1044800008490969884201D000BFFEE70348406837
:10449000401C0249486070472800002008010020A5
:1044A00054010020D4030020094840690121490437
:1044B0000843074948610920C006006803218902B2
:1044C00088430121890240180921C9060860704704
:1044D000001002400920C006808A202108430921DB
:1044E000C9068882704700000EB51648C0690121D0
:1044F00008431449C86101214804FFF74FFD1249E0
:1045000068460180002141807D20C00001906846FE
:104510000181694601208007FFF7F8FD012211465D
:104520009007FFF7E9FD01218807FFF7D7FD01217B
:104530000F20FFF7F5FC0F2001218140034A116095
:1045400000BF0EBD0010024080BB000000E100E093
:1045500010B501210846FFF731FD10BD8401002090
:104560000500010088010020850004008C01002066
:1045700085000400900100208500040094010020C3
:1045800085000400A001002005000100A401002016
:1045900085000400A801002085000400AC01002073
:1045A00005000100B00100208D000400B4010020CE
:1045B0000D000100B801002005000100BC01002031
:1045C0008D000400C00100200D000100C401002086
:1045D00005000100C80100208D000400CC0100206E
:1045E0000D000100D001002005000100D4010020D1
:1045F0008D000400D80100200D000100DC01002026
:104600000D000100E001002085000400E40100200D
:104610008D000400E80100208D000400EC01002062
:104620008D000400F00100208D000400F401002042
:104630008D000400F80100208D000400FC01002022
:104640008D000400000200200D0001000402002083
:104650008D000400080200208D0004000C020020E0
:104660008D000400100200208D00040014020020C0
:104670008D000400180200208D0004001C020020A0
:104680008D000400200200208D0004002402002080
:104690000D000100280200208D0004002C020020E3
:1046A0008D000400300200208D0004003402002040
:1046B0008D000400380200208D0004003C02002020
:1046C0008D000400400200208D0004004402002000
:1046D0008D000400480200200D0001004C02002063
:1046E0008D000400500200208D00040054020020C0
:1046F0008D000400580200208D0004005C020020A0
:104700008D000400600200208D000400640200207F
:104710008D000400680200208D0004006C0200205F
:1047200005000100700200208D00040074020020CA
:104730000D000100760200208D00020078020020AA
:104740000D0001007A0200208D0002007C02002092
:104750000D000100800200200500010084020020FD
:104760008D000400880200200D0001008A02002054
:104770008D0002008C0200200D0001008E0200203E
:104780008D000200900200200D0001009402002024
:1047900005000100980200208D0004009C0200200A
:1047A0000D0001009E0200208D000200A0020020EA
:1047B0000D000100A20200208D000200A4020020D2
:1047C0000D000100A802002005000100AC0200203D
:1047D0008D000400B00200200D000100B202002094
:1047E0008D000200B40200200D000100B60200207E
:1047F0008D000200B80200200D000100BC02002064
:104800000D000100C00200208D000400C402002041
:104810008D000400C80200208D000400CC0200209E
:104820008D000400D00200208D000400D40200207E
:104830008D000400D80200208D000400DC0200205E
:104840008D000400E00200200D000100E4020020C1
:104850008D000400E80200208D000400EC0200201E
:104860008D000400F00200208D000400F4020020FE
:104870008D000400F80200208D000400FC020020DE
:104880008D000400000300208D00040004030020BC
:104890000D000100080300208D0004000C0300201F
:1048A0008D000400100300208D000400140300207C
:1048B0008D000400180300208D0004001C0300205C
:1048C0008D000400200300208D000400240300203C
:1048D0008D000400280300200D0001002C0300209F
:1048E0008D000400300300208D00040034030020FC
:1048F0008D000400380300208D0004003C030020DC
:104900008D000400400300208D00040044030020BB
:104910008D000400480300208D000400B00000203A
:1049200006000100B8000020BE000800C000002002
:10493000BE000800C8000020BE000400D000002017
:10494000BE000800000000000E00000094030020DC
:1049500005000100950300200500010096030020DA
:104960008500020098030020850002009A030020C1
:10497000850002000010000085000400580100209E
:1049800001100000360001002C0000200310080078
:104990008E00040030000020051000008D0004008F
:1049A0005C010020061000008D0004006001002062
:1049B000071000008D0004006401002014100000A6
:1049C0008500040068010020151000008D00020021
:1049D0006C010020161004008D00040070010020FE
:1049E000171000008D000200800100201810040044
:1049F000000000005C450008191000000D000100D7
:104A000098010020291006000D00010099010020E6
:104A1000001202000000000084450008001402009B
:104A2000000000009C450008011402000000000086
:104A3000B44500080214020000000000CC45000844
:104A40000314020000000000E445000800160800FE
:104A500000000000FC4500080116080000000000EE
:104A60004446000802160800000000008C460008BA
:104A70000316080000000000D446000800180600D5
:104A8000000000001C47000801180600000000009C
:104A90005447000802180600000000008C47000878
:104AA0000318060000000000C4470008001A0800B0
:104AB00000000000FC470008011A08000000000088
:104AC00044480008021A0800000000008C48000852
:104AD000031A080000000000D4480008801F0000EE
:104AE0008D0004004C0300200021000036000A0065
:104AF00050000020012100000D00010050030020A3
:104B0000022100008D00020052030020032100005A
:104B10008E0002005A0000200421000086000200DE
:104B20005C00002006210000870004000C0100202A
:104B300007210500BE0002005E00002009210100DF
:104B4000B60002006800002010211000FE000400E2
:104B50006C00002011211000FD000400540300200F
:104B600012211000FF000400100100202021050088
:104B7000000000001C4900080060000076000100F1
:104B8000E0000020016000007E000100E100002044
:104B900010600000FE000200E2000020206004001F
:104BA000000000004C49000830600300850004004C
:104BB0009C0300203160050085000400A80300204C
:104BC0004060050085000400BC0300204160050032
:104BD00085000400D003002050600000860004001F
:104BE000E40000205160000086000200E800002080
:104BF00052600000FE000200EA0000205360000046
:104C00008E000200EC000020546002008E000200C2
:104C1000EE00002060600000F6000400F4000020B8
:104C200070600000F6000200F800002080600000C4
:104C30007E000100FA000020816000007600010083
:104C4000FB0000209060000006000100FC00002036
:104C500000002110422063308440A550C660E770F8
:104C6000088129914AA16BB18CC1ADD1CEE1EFF1A0
:104C70003112100273325222B5529442F772D66248
:104C8000399318837BB35AA3BDD39CC3FFF3DEE3F0
:104C90006224433420040114E664C774A444855498
:104CA0006AA54BB528850995EEE5CFF5ACC58DD540
:104CB0005336722611163006D776F6669556B446E8
:104CC0005BB77AA719973887DFF7FEE79DD7BCC790
:104CD000C448E5588668A778400861180228233838
:104CE000CCC9EDD98EE9AFF9488969990AA92BB9E0
:104CF000F55AD44AB77A966A711A500A333A122A88
:104D0000FDDBDCCBBFFB9EEB799B588B3BBB1AAB2F
:104D1000A66C877CE44CC55C222C033C600C411CD7
:104D2000AEED8FFDECCDCDDD2AAD0BBD688D499D7F
:104D3000977EB66ED55EF44E133E322E511E700E27
:104D40009FFFBEEFDDDFFCCF1BBF3AAF599F788FCF
:104D50008891A981CAB1EBA10CD12DC14EF16FE1AF
:104D60008010A100C230E3200450254046706760E7
:104D7000B9839893FBA3DAB33DC31CD37FE35EF3FF
:104D8000B1029012F322D232354214527762567237
:104D9000EAB5CBA5A89589856EF54FE52CD50DC54F
:104DA000E234C324A0148104667447642454054487
:104DB000DBA7FAB79987B8975FE77EF71DC73CD79F
:104DC000D326F2369106B0165766767615463456D7
:104DD0004CD96DC90EF92FE9C899E9898AB9ABA9EF
:104DE0004458654806782768C018E1088238A32827
:104DF0007DCB5CDB3FEB1EFBF98BD89BBBAB9ABB3F
:104E0000754A545A376A167AF10AD01AB32A923A76
:104E10002EFD0FED6CDD4DCDAABD8BADE89DC98D8E
:104E2000267C076C645C454CA23C832CE01CC10CC6
:104E30001FEF3EFF5DCF7CDF9BAFBABFD98FF89FDE
:104E4000176E367E554E745E932EB23ED10EF01E16
:104E5000704E000800000020F80300006801000800
:104E6000544F0008F803002068060000B441000811
:104E700001280235550350E80372054015EFCDAB0C
:104E80009078563412F1DEBC0A896745231F8545A8
:104E900041000922B4C876BE9F8C7C40ABFFFFD88E
:104EA0006908023F012948290414A2010FB2802990
:104EB0000C02136423E803021604398B42021A061B
:104EC0004019F9390C190529B9390C193C790C1913
:104ED00045790C192C5AFE41120814016008031878
:104EE00080602930292412100A1752241967792466
:104EF000091A4C01201997111A809529A8218AC8EE
:104F00001459D4B91459DC69142A061419E429D89F
:104F1000C9BC1119983A1004299C1208BA81A02919
:104F2000BC12205A6020110913BC29481210FA70D3
:104F30003C013412301BF401E3013D1E04A0100EAD
:104F400001927A430121890C89012968092204020E
:044F500013550000F5
:04000005080000C12E
:00000001FF
